:020000040800F2
:10000000E00F00203102000859310008012E0008DD
:1000100055310008B107000899650008000000008C
:100020000000000000000000000000006D3100082A
:10003000150800080000000069310008713100084F
:100040004B0200084B0200084B0200084B0200085C
:100050004B0200084B0200084B0200084B0200084C
:100060004B0200084B0200084B0200084B0200083C
:100070004B0200084B0200084B0200084B0200082C
:10008000090800084B0200084B0200084B02000858
:10009000E90700084B0200084B0200084B02000869
:1000A0004B0200084B0200084B0200084B020008FC
:1000B0004B0200084B0200084B0200084B020008EC
:1000C0004B0200084B0200084B0200084B020008DC
:1000D0004B0200084B0200084B0200084B020008CC
:1000E000190800084B0200084B0200084B020008E8
:1000F0004B0200084B0200084B0200084B020008AC
:100100004B0200084B0200084B0200084B0200089B
:100110004B0200084B0200084B0200084B0200088B
:100120004B0200084B0200084B0200084B0200087B
:100130004B0200084B0200084B0200084B0200086B
:100140004B0200084B0200084B0200085D3100081A
:100150004B0200084B0200084B0200084B0200084B
:100160004B0200084B0200084B0200084B0200083B
:100170004B0200084B0200084B0200080000000080
:100180004B0200084B02000800F002F800F040F8B3
:100190000AA090E8000C82448344AAF10107DA45E2
:1001A00001D100F035F8AFF2090EBAE80F0013F0F4
:1001B000010F18BFFB1A43F001031847347A0000FF
:1001C000547A0000103A24BF78C878C1FAD8520790
:1001D00024BF30C830C144BF04680C6070470000C1
:1001E0000023002400250026103A28BF78C1FBD840
:1001F000520728BF30C148BF0B6070471FB507F0DA
:10020000D2FB9DE8030000F093F91FBD10B510BDAF
:1002100000F04AFA1146FFF7F1FF06F0A9FB00F0E3
:1002200068FA03B4FFF7F2FF03BC00F099FA00008C
:100230000948804709480047FEE7FEE7FEE7FEE77A
:10024000FEE7FEE7FEE7FEE7FEE7FEE704480549B6
:10025000054A064B7047000021320008890100085A
:10026000E0090020E00F0020E00B0020E00B002060
:1002700070B5A0FB0140B4F1805170F1000024BFC3
:10028000002070BD204600F082F905001CBF214609
:1002900000F0E6F8284670BD70B50446051F00F072
:1002A0002BF90068002C14BF446870BD002C18BFE7
:1002B000AC423CBF20466468F8D301680A18AA42E1
:1002C00018BF456003D12A680546114401602868BB
:1002D0004119A1421CBF6C6070BD616869602168F2
:1002E0000844286070BD53EA020C00F069802DE9D3
:1002F000F04B4FF00006002B1FBFB3FA83F503FA53
:1003000005F424FA05F65E4012BF1643B2FA82F5F0
:1003100002FA05F4C5F120051EBF22FA05FC44EAE5
:100320000C04203556EA044C4FEA144418BF641CF0
:100330004FF000084FF00009904271EB030C39D3E5
:10034000002919BFB1FA81F701FA07F6B0FA80F770
:1003500000FA07F6C7F120071EBF20FA07FC46EA9D
:100360000C062037B6FBF4FCA7EB0507103F07F09F
:100370001F0BCBF120062CFA06F60CFA0BFB44BF40
:10038000B3460026202FA4BF5E464FF0000B5BEA69
:10039000060C08BF4FF0010B19EB0B0948EB0608E0
:1003A000ABFB027C06FB02CC0BFB03CCC01B71EB4E
:1003B0000C01C1E70B46024641464846BDE8F08BBA
:1003C00013B5084318BF4FF0FF300146AFF300806C
:1003D000BDE81C407047032A40F2308010F0030C47
:1003E00000F0158011F8013BBCF1020F624498BF88
:1003F00011F801CB00F8013B38BF11F8013BA2F125
:10040000040298BF00F801CB38BF00F8013B11F09F
:10041000030300F0EB80083AC0F0088051F8043B79
:10042000083A51F804CBA0E80810F5E7121D5CBFAC
:1004300051F8043B40F8043BAFF30080D20724BFDF
:1004400011F8013B11F801CB48BF11F8012B24BF73
:1004500000F8013B00F801CB48BF00F8012B7047C2
:100460004FF000020429C0F0128010F0030C00F0DD
:100470001B80CCF1040CBCF1020F18BF00F8012B5B
:10048000A8BF20F8022BA1EB0C0100F00DB85FEA29
:10049000C17C24BF00F8012B00F8012B48BF00F8F5
:1004A000012B70474FF0000200B513469446964664
:1004B000203922BFA0E80C50A0E80C50B1F1200177
:1004C000BFF4F7AF090728BFA0E80C5048BF0CC025
:1004D0005DF804EB890028BF40F8042B08BF704783
:1004E00048BF20F8022B11F0804F18BF00F8012BF5
:1004F00070477047704770470048704738000020C9
:10050000704770477047704738B504460A46002068
:100510006946AFF30080002808BF38BD0246009945
:10052000204600F0A0F8012038BD012000F0B5B849
:10053000F8B5AFF30080054600200C46102000BF40
:100540000646A819A0420DD9324669460020AFF3ED
:100550000080070008BF00F0A0F80098A04218BF74
:100560000546C419FFF7C8FF05600746F01D20F0D7
:1005700007004619284600F06FF8B44208BFF8BDDE
:10058000A21B31463868BDE8F84000F06CB870B581
:100590000646FFF7B1FF056806F10B0020F00704DF
:1005A000B4429CBF002070BD2B466A68BAB1106887
:1005B000A04210D304F1080188423CBF5068586043
:1005C00007D35168101941601168091B0160586018
:1005D0001460101D70BD13465268002AE7D12146F1
:1005E0002846FFF791FF0028DED170BD10B5203AF4
:1005F000C0F00B80B1E81850A0E81850B1E81850CE
:10060000A0E81850203ABFF4F5AF5FEA027C24BF9F
:10061000B1E81850A0E8185044BF18C918C0BDE888
:1006200010405FEA827C24BF51F8043B40F8043B51
:1006300008BF7047D20728BF31F8023B48BF11F806
:10064000012B28BF20F8023B48BF00F8012B704760
:10065000004870473000002000210160C0E901100F
:10066000704710207047034640688C46002818BF2A
:1006700088423CBF03464068F8D318681844884253
:1006800007D00CF1030020F00700001D411A521A98
:100690000146081D0A60FFF7FFBD10B500F038F8ED
:1006A000BDE8104000F02EB87546FFF7D1FFAE460A
:1006B00005006946534620F00700854618B020B56E
:1006C000FFF7C4FDBDE820404FF000064FF00007E3
:1006D0004FF000084FF0000BAC46ACE8C009ACE8A6
:1006E000C009ACE8C009ACE8C00921F007018D469B
:1006F000704710B50446AFF300802046BDE81040B7
:10070000FFF78FBD002801D000F02AB87047000025
:1007100010B5012805D0002103A000F028F8012021
:1007200010BD09A1F8E7000053494752544D454D0B
:100730003A204F7574206F662068656170206D6582
:100740006D6F7279000000003A2048656170206D7D
:10075000656D6F727920636F727275707465640075
:1007600001491820ABBEFEE726000200704770B5B5
:1007700005460C460A2000E06D1C00F011F835B16A
:1007800028780028F8D102E0641C00F009F814B1C0
:1007900020780028F8D1BDE870400A20AFF300802F
:1007A00008B569468DF800000320ABBE08BD000007
:1007B000FEE7000070B58AB0DDE9104EDDF848C0F4
:1007C000CDE904E006A8DDE90E6580E8061040F2F8
:1007D000E040C2F200006946CDE90036CDE902549E
:1007E00000F08EF80AB070BD40F2E040C2F20000A6
:1007F00000F092B910B5DDF810C0DDE9024E80E8D6
:100800001E4080F814C010BD40F20850C2F2000033
:1008100000F036BC704700004FF4006000F028BEC6
:1008200072B600BFFEE7000090F82020013A012ACE
:1008300008D8006800F11402002013681943116001
:10084000704700BF00F1240201204FF4802113689B
:10085000194311607047000010B590F820E0D0F8FF
:1008600000C0AEF1010EBEF1010FDCF808E011D8B6
:100870001EF0E05F18D0CEF3016E012000FA0EF0FA
:1008800018608B68D3B14868CC6844EAC000034361
:1008900018E000BF00F1240101204FF480220B6812
:1008A0001A430A6010BD00BF00F1240101204FF47B
:1008B00000120B681A430A6010BD00BF0868CB68BD
:1008C00043EA40530CEB0E10C0F880310B69C0F8BE
:1008D0008431097D012905D100F5C2710B6843F40B
:1008E00080730B605168C0F88C11126800F5C071FC
:1008F000C0F88821002001220B681A430A6010BD4D
:10090000B0B590F82020013A012A2FD846F20060B5
:10091000C4F20000026842F001020260026822F4A0
:100920007C520260D1F814E0CC694A6A0368012C59
:1009300043EA022202600EF01F024FF0010303FAA5
:1009400002F2C3696FEA020C23EA0203C36113D007
:100950002CBBC36803EA0C03C360CB688C8844EAF1
:10096000034300EBCE0423640B4611E0416A41F4DB
:10097000802141620120B0BDC3681343C3600B688E
:100980008C8844EA034300EBCE04236401F10C039A
:100990008C681B8843EA044300EBCE04636443681D
:1009A0008D6943EA0204D1F810E0096A002D08BFFE
:1009B00003EA0C0444604369BEF1000F43EA0204F9
:1009C00008BF03EA0C040129446102D1C169114343
:1009D000C161016821F0010101600020B0BD00008B
:1009E0007047000010B590F82040013C012C7BD8E6
:1009F000D0F800C0002900F08180DCF81040A40786
:100A000000F081800CEB011CDCF8B0410CF5D87EC5
:100A100014F004049460DCF8B04119BFE408546099
:100A2000640D1460DEF800400CF5DA7E04F0020478
:100A3000D460DCF8B44124075ABFDEF8004004F06B
:100A40000F0408241461DEF800400029C4F30724D1
:100A50009461DEF800404FEA14445461DCF8B82198
:100A60001A70026802EB0112D2F8B8214FEA122282
:100A70005A70026802EB0112D2F8B8214FEA124212
:100A80009A70026802EB0112D2F8B8214FEA1262A2
:100A9000DA70026802EB0112D2F8BC211A71026806
:100AA00002EB0112D2F8BC214FEA12225A710268FD
:100AB00002EB0112D2F8BC214FEA12429A7102688D
:100AC00002EB0112D2F8BC214FEA1262DA7100681F
:100AD00014BF00F1100100F10C01002020220B686E
:100AE0001A430A6010BD00BF00F1240101204FF439
:100AF00080220B681A430A6010BD00BFDCF80C406E
:100B0000A4077FF47FAF00F1240101204FF400120D
:100B10000B681A430A6010BD2DE9F04F81B00446FE
:100B200000684669D0F804908768D0F80CB0D0F817
:100B300010A0D0F81880F10704D1002530071DD48B
:100B400024E000BFF90710D00121BA07816009D461
:100B5000780700F1AF80380700F1B680204600F03A
:100B600081FA02E0204600F07FFA0025F80500F146
:100B70008780F80300F1B180300707D51BF0100023
:100B800004D0206845F400751021C160700708D5B5
:100B90001BF0080005D020680821C160204600F045
:100BA000A1F9B00706D52068C068800702D02046AA
:100BB00000F09AF9700607D51AF0100004D02068EA
:100BC00045F4806510210161B00608D51AF00800CF
:100BD00005D0206808210161204600F00FFAF006D8
:100BE00006D520680069800702D0204600F008FA88
:100BF000B00308D519F0100005D02068102141601D
:100C0000204600F0FFF9F00308D519F0080005D0E0
:100C1000206808214160204600F030FA300440F19D
:100C20009B805FEA497040F1948006F4807008EA86
:100C3000102028435FEA8871014648BF41F0020155
:100C4000B20558BF01465FEA48700D4648BF45F0FF
:100C50000405700558BF0D46300540F17A8018F044
:100C6000700000F076801038000905286CD8DFE8A5
:100C700000F003595D61656945F0080564E000BF57
:100C800020684FF48071BA0581600BD4780515D4C3
:100C900038051DD4204600F0E9F9F8037FF56CAF64
:100CA0001BE000BF204600F0E3F9F8037FF564AFD6
:100CB00013E000BF4FF4006558E700BF05F500558D
:100CC000F8037FF559AF08E04FF480554EE700BFB9
:100CD00005F58045F8037FF54FAF20684FF480316C
:100CE000BA0381600AD4780310D4380314D42046A0
:100CF00000F0C0F930073FF541AF47E7204600F06C
:100D0000BBF930073FF53AAF40E700BF05F50045B6
:100D100030073FF533AF39E705F5803530073FF54C
:100D20002DAF33E745F010050EE000BF45F020057C
:100D30000AE000BF45F0400506E000BF45F0800531
:100D400002E000BF45F480752068816921F07001E0
:100D5000816120680421416055B1606A40EA050163
:100D60002046616201B0BDE8F04FFFF739BE00BF19
:100D700001B0BDE8F08F0000B0B5C8B1044690F8EE
:100D8000200010B9204600F071F82068016841F099
:100D90000101016000F052FC054600BF2068416877
:100DA000C90707D100F04AFC401B0B28F6D312E01C
:100DB0000120B0BD016821F00201016000F03EFC9D
:100DC000054600BF2068416889070DD500F036FC54
:100DD000401B0B28F6D3606A052140F400306062A6
:100DE000012084F82010B0BD217E0268012922F084
:100DF000800208BF80320260617E0268012922F011
:100E0000400208BF40320260A17E0268012922F040
:100E1000200208BF20320260E17E0268012922F030
:100E2000100218BF10320260217F0268012922F0EF
:100E3000080208BF08320260617F0268012922F0BF
:100E4000040208BF04320260D4E901C2D4E90335C8
:100E500061691A432A431143ACF101021143C16194
:100E600000200121606284F82010B0BD80B586B0FA
:100E7000016846F20040C4F20000814202D006B090
:100E800080BD00BF002143F630020191C4F202028E
:100E9000136900F5D43043F000731361136903F054
:100EA00000730193019B0191136843F008031360E1
:100EB0001268022302F008020192019ACDE9023180
:100EC00009210322059101A90192049200F0DCFAA4
:100ED00014200021002201F073FA142001F05CFAC2
:100EE00006B080BD7047000010B588B040F2900495
:100EF000C2F2000440F2E04004F15403C2F20000E8
:100F000001AA0021FFF76EFD10B108B010BD00BFAF
:100F100094F8561094F8550094F85720090241EAC5
:100F2000003081186FF4885010FA81F00428218075
:100F3000EBD8DFE800F0050309192D00E5E700BF55
:100F40000020206308B010BDA06D0121C4E9080194
:100F5000A1620021C4F2A5310A28A16426D0C828C4
:100F60002AD1642023E000BF00F068FB2064012048
:100F7000A060A06D0421C4E908010021C4F28C31F5
:100F80000A28A16422D0C82826D164201FE000BF0F
:100F9000A06D0321C4E908010021C4F2A5310A288B
:100FA000A1641FD0C82823D164201CE01E2040F279
:100FB0002C01C2F2000108800020C4E90D00E063AA
:100FC0004FF0FF30E06208B010BD00BF1E2040F2BD
:100FD0002C01C2F2000108800020C4E90E0008B014
:100FE00010BD00BF1E2040F22C01C2F2000108809B
:100FF0000020C4E90E0008B010BD000070470000DA
:101000007047000070470000B0B5044690F820001B
:1010100001281DD1022084F820002068016821F0F9
:101020000101016000F00AFB054600BF206840682E
:10103000C00713D000F002FB401B0B28F6D3606AF8
:1010400040F400306062052084F820000120B0BD2B
:10105000606A40F4002060620120B0BD0020606240
:10106000B0BD0000704700007047000070470000EE
:101070007047000070470000704700007047000094
:10108000F0B581B004460020009040F22800C2F282
:1010900000000268D4E9166048F2B51337680821E9
:1010A000C1F64E3381403942A2FB03250CD02268A1
:1010B00013685B0708D5136823F004031360B1605D
:1010C000616D41F00101616501218140394208D023
:1010D00022685269120604D5B160616D41F00201C7
:1010E000616504218140394208D022681268920764
:1010F00004D5B160616D41F004016165102181404A
:10110000394217D020680268120713D5B16002680F
:101110000168520308D4C90508D4016821F0080108
:101120000160216C21B905E008033FD4216C09B1AD
:1011300020468847E16D202000FA01F23A4241D072
:1011400020680368DB063DD5B26094F8353002684C
:10115000052B1BD122F016020260426922F08002A8
:101160004261226C0AB9A26C1AB1026822F008022C
:1011700002603F208840B060012084F83500216D76
:101180000020002984F8340052D157E0016852034E
:1011900010D4C90512D4016821F0100101600120AA
:1011A00084F83500002084F8340007E0A16C0029A1
:1011B000BED1BFE7080301D4616C00E0E16B09B167
:1011C00020468847606DC8B3606DC0072ED00520EB
:1011D00084F835002068A90A026822F00102026042
:1011E000009A01328A4200921AD80268D20717D0B8
:1011F000009A01328A42009212D80268D2070FD0B8
:10120000009A01328A4200920AD80268D20707D0B7
:10121000009A01328A42009202D80268D207DFD1D6
:10122000012084F83500002084F83400E16C29B1F5
:10123000204601B0BDE8F040084700BF01B0F0BD56
:101240002DE9F041044600F0F9F9ECB10546022021
:1012500084F835000020216884F83400086820F004
:101260000100086021680868C00711D000F0E6F9A5
:10127000401B0528F6D9032520230320636584F845
:101280003550BDE8F08100BF0120BDE8F08100BF0E
:10129000086848F23F02CFF21002D4E9013500EAB3
:1012A000020C04F10C0898E8C10143EA0C032B433B
:1012B0001843D4E9072E304338431043626A40EAAA
:1012C0000E00042A40EA08031CD1206BD4E90A2E40
:1012D00040EA0E00184308604869BEF1000F20F094
:1012E000030040EA020040F0040C11D0B8F5005FA2
:1012F00036D0B8F1000F45D1022A46D0012A3BD0A2
:1013000032B942E00B60486920F0070040EA020C65
:1013100001F0F8004AF6AB221038CAF6AA22A0FB68
:1013200002231A0947F6E213C0F600039A5C40F262
:10133000FF335F284FF03F00C1F814C021EA0301DA
:1013400000FA02F088BF0431C4E916128860002355
:1013500001250020636584F83550BDE8F08100BFA9
:10136000032AD5D8012540230120DFE802F0030E2F
:10137000030500BF82E700BFAEF1C070B0FA80F095
:10138000400904E0032A04D3C2D1CEF30060002850
:10139000BED0012540230120636584F83550BDE8A7
:1013A000F081000070B590F834C0BCF1010F46D058
:1013B0004FF0010C80F834C0D0F858E090F835C0F8
:1013C000BCF1010F38D14FF0020C80F835C04FF05E
:1013D000000CC0F854C0D0F800C08468056CC06D23
:1013E000DCF80060402C26F48026CCF80060CCF8B5
:1013F00004300B4604BF13460A463F2101FA00F0B1
:10140000CCF80830CCF80C20CEF80800DCF800004E
:1014100040F01600CCF800002DB1DCF8000040F0E0
:101420000800CCF80000DCF8000040F00100CCF827
:101430000000002070BD00BF002180F834100220A1
:1014400070BD0000B0B5044600F0F8F8054640F263
:101450000000C2F200000078611C18BF044400BF05
:1014600000F0ECF8401BA042FAD3B0BD704700007A
:1014700043F61441C4F201010A68024214BF086035
:101480007047FFF7F3BF00002DE9F04F82B000F185
:101490003E4241F6004502F1FF77C4F20205082200
:1014A00043F6004E4FEAB726A84208BF0722C4F20F
:1014B000010E072E38BF4FEAB7220125002600276C
:1014C0004FF00008009208E008F101080437B8F175
:1014D000100F06F1020600F0A7800C6805FA08F963
:1014E00014EA090FF0D0D1F804B003220BF0030C7A
:1014F000ACF10104B240012C6FEA020A10D88268F4
:10150000CC6802EA0A02B440224382604268CBF30C
:10151000001422EA090204FA08F42243426005E0BA
:10152000BCF1030F02D14FF0030C20E0C2688C68BD
:1015300002EA0A02B4402243BCF1020FC26016D193
:101540006FF0030202EA58020244D2F820C007F00A
:101550001C050F230C69AB402CEA030304FA05F5C4
:101560002B431362D1F804B001250BF0030C026881
:101570000CFA06F302EA0A021A431BF4403F026027
:10158000A2D0002243F644030192C4F202031A6877
:101590004FF6084C42F480421A601A68CFF6FF7C7E
:1015A00002F480420192019A28F00302724452F838
:1015B0000C3007F00C050F24AC40A343009C04FA48
:1015C00005F52B4342F80C30DEF808204B6842EA60
:1015D000090543F60C4CDC0258BF22EA0905CEF897
:1015E0000850C4F2010CDCF800209C0242EA090514
:1015F00058BF22EA0905CCF80050DEF804209C030D
:1016000042EA090558BF22EA0905CEF80450DEF87F
:101610000020DB0342EA090558BF22EA0905CEF89B
:101620000050012550E700BF02B0BDE8F08F000078
:10163000002A08BF090481617047000040F6D810F5
:10164000C2F2000000687047D0F8DC0302F092BEDE
:10165000D0F8DC0302F09ABE006803F06DBC000015
:10166000006803F06DBC0000C1EB011100EB8100CC
:1016700090F84C0070470000C1EB011100EB8100B5
:10168000806B704710B5044690F8D403012804BF5E
:10169000022010BD2068012284F8D42303F060FCEE
:1016A000002084F8D40310BD2DE9F04F83B0044628
:1016B00090F8D403012803D1022003B0BDE8F08FD5
:1016C000012084F8D403C1EB01100F4604EB800124
:1016D00002F07F008875D009DDE90CBAC875206872
:1016E0000E9D4FF000099846164681F819900B752B
:1016F0004F7581F826A0A1F81A90A1F8249003F064
:101700001FFCBAF1010F0AD1BC2D294628BFBC210C
:10171000002818BF2946BBF1010F08BF0D46C7EBD3
:10172000071004EB8001206881F818B00D85394658
:1017300032464346CDE900BA029503F0BBFC84F87B
:10174000D49303B0BDE8F08F704700002DE9F0435B
:101750008C46DDE90775CCEB0C16DDE9099100EB51
:10176000860E8EF81720002F8EF8263006BF8EF8D2
:10177000191003260226714601F82A6F032B4FF039
:10178000000818D80026DFE803F00715030300BFA0
:1017900052B19EF83C2009E0012F0CD1E2B19EF835
:1017A0001A20012A07D1F4E79EF83D20002A18BF2D
:1017B000012256000E70036882790EF11401CEF8F2
:1017C0002C50AEF84C80CEE90D9818468EF815C016
:1017D000BDE8F04303F004BDB9F1000F0EF13D0286
:1017E00004D0127822B90026E4E700BF0123137069
:1017F0000226DFE72DE9F04F85B0D0F800800446DF
:10180000404603F0A9FB012840F07984206803F0EA
:10181000F9FF002800F07384206803F0F3FF01460D
:101820002068890244BF4FF40011416103F0EAFFD0
:1018300001462068C90244BF4FF48011416103F0A2
:10184000E1FF01462068490144BF4FF080614161DA
:1018500003F0D8FF01462068890744BF0221416197
:1018600003F0D0FF800018D520684FF0005141618F
:10187000D8F84004C00710D14046102103F0FCFA0C
:10188000404603F099FA607A022803D120680121CA
:1018900003F090FF2046FFF7DBFE206803F0B2FF65
:1018A000C0011CD52568D5F840040490D5F8400443
:1018B0000390039820F02E0003900498800700F115
:1018C000C5830498000700F1CF830498800603D5F0
:1018D000039840F0200003900398C5F84004206866
:1018E00003F090FF000701D4206805E0204600F0D7
:1018F000BBFC20680821416103F084FF0146206899
:10190000890140F1778303F067FC61790290002937
:1019100000F06C834FF4A0654FF000094FF0000B0E
:10192000CDF8048013E000BFA8194FF40071816066
:10193000206800BF514603F013FB60790BF1010BE7
:1019400009F13C09834505F1200580F04F83029998
:101950000BF00F0021FA00F0C007EED058F8057028
:1019600026685FFA8BFA3046514603F043FF39048C
:1019700000F0040066D4002840F0808020685146C2
:1019800003F038FF800600F187802068514603F09D
:1019900031FF8005C8D42068514603F02BFFC007F3
:1019A00040F0AC802068514603F024FF400600F16F
:1019B000B5812068514603F01DFF000700F1DE816C
:1019C0002068514603F016FFC00600F1DF81206851
:1019D000514603F00FFF000600F17882206851465F
:1019E00003F008FF400500F185822068514603F0AE
:1019F00001FF8007A1D5A9190220886004EB090026
:101A000090F84D20013A082A97D8DFE812F09502A5
:101A10000900A702B302C502CB020B0009000B00AC
:101A20008BE700BF426C02230132032A80F84D305D
:101A30004264C0F0BF8200210422416480F84C203F
:101A40001AE200BF20BB2068514603F0D3FEC00558
:101A50004CD42068514603F0CDFE00074AD42068DC
:101A6000514603F0C7FE400568D42068514603F094
:101A7000C1FE000670D50721802063E0A81904216B
:101A80008160206804EB0901072281F84D2051E7AD
:101A90000721042056E000BFA8192021816004EB33
:101AA0000906707E012809D100207076206840F276
:101AB0000231A6F84C10514603F052FAB07E0128CC
:101AC0007FF43BAFF07E00287FF437AF96F8260016
:101AD000032101281CBF0120F076206886F84D10F4
:101AE000514603F03DFA0020706426E708214FF4C8
:101AF000807027E00621082024E000BF04EB0908DD
:101B000020680021C8F84410514603F073FE4006D7
:101B100005D5012088F81900A8194021816098F89E
:101B20001B00002800F01E81002088F81B00A81967
:101B3000416821F48031416015E100BF09214FF473
:101B4000806000BFAA19906004EB0902206882F847
:101B50004D10514603F004FA2068514603F04AFE46
:101B600001462068890537D4514603F043FEC0077B
:101B70003AD12068514603F03DFE800600F17A809C
:101B80002068514603F036FE800700F19B802068F4
:101B9000514603F02FFE400600F1D48020685146E4
:101BA00003F028FEC0067FF5C8AE04EB090898F8DC
:101BB0002600002818BF022840F06481A079002880
:101BC0004FF00000C8F8440000F0618198F81B0055
:101BD000012800F05C8161E1514603F0C1F9A819C8
:101BE0004FF400718160A8E605EB06082020C8F8D4
:101BF000080004EB0906F07E012807D10020F076EA
:101C0000D8F8040020F48030C8F80400A07930B17E
:101C1000306BD8F810106FF3DF41401AB063012128
:101C2000002086F84D107064C8F8081096F8260059
:101C300003280AD8DFE800F0022C022C2068514665
:101C400003F08EF91020C8F80800A079012830D1DF
:101C5000B06B318DDDF8048008440138B0FBF1F041
:101C6000C0073FF46AAE96F83C0080F0010086F8A9
:101C70003C0062E6A8192021816004EB0901887EFE
:101C800001287FF45AAE0120C87620680322FCE6C2
:101C9000D8F80000514640F00050C8F8000001207C
:101CA00086F84C0020460122FFF74EFDA07901285E
:101CB000CED096F83C00DDF8048080F0010086F874
:101CC0003C003AE6A9190220886004EB090090F86C
:101CD0004D20013A082A00F2CD80DFE802F06D05C0
:101CE000738F95AF07B5070027E600BF426C02234C
:101CF0000132032A80F84D304264C0F0AF80827E0A
:101D0000012A4FF00002426440F0A4800022A0F8B3
:101D10001B204A6822F480324A609BE004EB0901F0
:101D2000887E002200284FF0050081F84D0004BF96
:101D30000120487620684A64514603F011F9A81939
:101D400040214FE7A8194021816004EB0900817E02
:101D500000294FF0050180F84D1004BF00214164B7
:101D60002068E7E5A81901218160206888F84D10F6
:101D7000514603F0F5F8DDF80480DEE5A8190821E6
:101D80008160206804EB090106227EE604EB09006D
:101D9000417E002200294FF00401426480F84D107A
:101DA00004D1017E002904BF0121417620685146FB
:101DB00003F0D6F8A81986E0022180F84D10012121
:101DC00049E000BFC27E0223012A80F84D3051D184
:101DD00080F84C304A6842F480324A60CA6842F067
:101DE0004002CA60CA6822F02002CA6090F8262029
:101DF00042F00202022A39D03CE000BF90F82620CF
:101E0000022380F84D302BE0C27E0223012A80F8A5
:101E10004D302FD190F82620032A21D1826C013237
:101E2000032A8264C0F08480426C00238364022A07
:101E3000C3769CBF012202776BE700BF022180F8C6
:101E40004D10052107E000BF416C0222013180F8EE
:101E50004D204164042180F84C100BE090F82620BE
:101E600042F00202022A80F84C3003D10A6863F380
:101E70009F720A6090F84C2020465146FFF764FCA0
:101E80005BE500BF032809D10020C8F844002068A2
:101E9000042188F84D10514603F062F898F81B00B1
:101EA00001280DD1002088F81B00A819416821F4F1
:101EB00080314160C16841F02001C16001E000BF94
:101EC000A819DDF8048010218CE600BFA079F8B1D4
:101ED00004EB0900416C01310329416422D3002144
:101EE0004164042180F84C10204651460422FFF73B
:101EF0002BFC1AE004EB09012068092281F84D202F
:101F0000514603F02DF8A8194FF480616AE600BF2E
:101F100004EB09012068072281F84D20514603F0A7
:101F20001FF802E0022180F84C10A819802159E620
:101F300080F84C309EE700BF022180F84D1090F8E9
:101F40002610012201F0FE01022980F84C2093D1D5
:101F5000A179012936D000293DD042E0C17E012976
:101F60004FF0020180F84D107FF484AF022280F818
:101F70004C2081E7C37E0222012B80F84D2080F89F
:101F80004C207FF479AF0022C2764868022220F408
:101F90008030486070E700BF022280F84D2080F852
:101FA0004C2069E70221052280F84D1080F84C2072
:101FB00062E700BF022280F84C20086862F39F703D
:101FC000086059E7416B61B1028D11440139B1FBE1
:101FD000F2F1C90705D090F83D1081F0010180F8B9
:101FE0003D10DDF80480012246E700BF20684FF075
:101FF0000071416103F006FCC00640F18080256855
:10200000A86920F01000A861286A00F4F011B1F569
:10201000802F6FD1C0F30A16002E6BD000F00F088E
:10202000C8EB081004EB80094F4657F82C1F002915
:1020300060D0CA465AF8380F5AF8042C30449042FF
:1020400032D9042089F84C0054E000BF0498C0073E
:1020500002D02046FFF7F8FA039840F00200039000
:10206000049800077FF531AC039840F00800039016
:102070000498400708D4204600F0EAF80498800647
:102080003FF526ACFFF728BC607A02283AD10498C5
:1020900000F4C0212068B1F5802F14BF0121022176
:1020A00003F088FB35E000BF2846324603F0AEFB64
:1020B0003868DAF80010304438608819CAF800002F
:1020C00005EB4810D0F81015B9F82820964211D128
:1020D0000022C1F6F87211400CD000F5A060016832
:1020E000022262F39F71016099F83C0080F00100C8
:1020F00089F83C002068816941F01001816105B0D8
:10210000BDE8F08FE079012804BF4EF66020C5F8E5
:102110000404204600F0A0F8049880063FF5D8ABF0
:10212000FFF7DABB70B582B020B30446056890F8BB
:10213000D50328B9002084F8D403204600F03CF8E9
:102140000320B5F1A04F84F8D50304BF0020A0718F
:10215000206802F0FBFD94E80F00267C009602F058
:10216000EBFC58B10125022684F8D563284602B05D
:1021700070BD00BF0125284602B070BD2068012156
:10218000012503F0B9FB4FF0020628B184F8D563AE
:10219000284602B070BD00BF94E80F00257C009572
:1021A00003F09AF9054600280CBF0126012584F8A2
:1021B000D563284602B070BDF0B587B00068002630
:1021C000B0F1A04F0696059602D007B0F0BD00BF53
:1021D00043F630070196C4F202073868002440F045
:1021E000010038603868C4F2020400F00100019078
:1021F00001984FF4007002ADCDE902062046294651
:102200000496FFF741F94FF4E05002900220CDE927
:1022100003060A200690204629460596FFF734F962
:102220007868002140F0800078600196786900228B
:1022300040F480407861786900F480400190019812
:10224000432000F0BDF8432000F0A6F807B0F0BD31
:10225000D0F8DC0302F028B9D0F8DC0302F028B98A
:10226000006803F029BB0000D0F8DC0302F0C6B818
:1022700010B5044690F8D403012804BF022010BD15
:102280000121206884F8D413012102F067FD206841
:1022900002F08AFD002084F8D40310BD10B5044676
:1022A00090F8D403012804BF022010BD206801214A
:1022B00084F8D41303F0D4FC002084F8D40310BDB8
:1022C00040F2000040F6D811C2F20000C2F2000154
:1022D00000780A68104408607047000080B543F633
:1022E0000040C4F20200016841F40071016001681D
:1022F00041F480610160016841F480710160032054
:1023000000F08AF8002000F005F800F027F800201F
:1023100080BD000070B540F20006C2F2000640F237
:1023200028013278C2F200014FF47A730968B3FBD6
:10233000F2F20446B1FBF2F1084600F045FB0F2C27
:102340004FF0010508D838B94FF0FF302146002280
:10235000002500F035F87460284670BD82B000207A
:1023600043F640010190C4F202014A6842F48042FF
:102370004A604A6802F480420192019A009008681B
:1023800040F080500860086800F08050009000988D
:10239000072002B000F040B8002848BF7047C1B223
:1023A00000F01F00012202FA00F04EF20012CEF2FD
:1023B000000242EAD10121F00301086070470000E9
:1023C00010B54EF60C5CCEF2000CDCF80030C3F316
:1023D000022E8EF00704042C28BF0424BEF1030350
:1023E0004FF0FF3E0EFA04F438BF0023A14399409A
:1023F0000EFA03F39A43114300F00F0200F1604319
:102400000901043A03F564436244002848BF02F11D
:102410000C03197010BD00004EF60C51CEF20001F5
:102420000A684FF6FF031A4060F30A2242F0806008
:1024300040F0FD70086070472DE9F041002800F081
:102440008B8043F60808C4F202080446D8F8F80363
:102450000D4600F00700884207D288F8F853D8F8F4
:10246000F80300F00700A84276D12068810717D54D
:10247000410705D5D8F8001041F4E051C8F8001024
:10248000010705D5D8F8001041F46041C8F80010E4
:10249000D8F80010A26821F0F0011143C8F800102C
:1024A000C0073FD1D8F8F80300F00700A84207D9C9
:1024B00088F8F853D8F8F80300F00700A8424BD189
:1024C0002068410707D5D8F80010E26821F4E051F0
:1024D0001143C8F80010000708D5D8F8000021699A
:1024E00020F4604040EAC100C8F8000000F07CF829
:1024F000D8F8001047F6CA12C1F30311C0F6000263
:10250000515C40F2280220FA01F140F20400C2F2CC
:1025100000000068C2F200021160FFF7FBFE00201D
:10252000BDE8F0816068811E022907D258F8081CB6
:1025300089015CBF0120BDE8F08111E0012807D1CD
:1025400058F8081C89035CBF0120BDE8F08107E052
:1025500058F8081C890703D40120BDE8F08100BFAA
:10256000D8F8001021F003010843C8F80000FFF775
:1025700065F8064641F28837D8F80000616800F037
:102580000C00B0EB810F8DD0FFF758F8801BB842DC
:10259000F2D90320BDE8F08140F2280043F608019B
:1025A000C2F20000C4F202010068096847F6DA12BC
:1025B000C1F38221C0F60002515CC84070470000A0
:1025C00040F2280043F60801C2F20000C4F2020102
:1025D0000068096847F6DA12C1F34231C0F600021A
:1025E000515CC8407047000010B543F60404C4F2C3
:1025F0000204606800F00C0142F200400829C0F2B9
:10260000F40007D0042918BF10BD41F20020C0F229
:102610007A0010BD216801F03F0221682368490259
:10262000C3F3881106D4A1FB00010023FDF75BFE74
:1026300007E000BF41F20020C0F27A004843B0FB3F
:10264000F2F021680222C1F3014102EB4101B0FB2B
:10265000F1F010BD2DE9F04182B0002868D00446A9
:10266000007843F60006C007C4F202060BD0B0683B
:1026700000F00C00042840F09F803068800302D5F1
:102680006068002854D0207880071AD5B06810F010
:102690000C0F09D0B06800F00C00082840F0A680AC
:1026A0007068400200F1A2803068800702D5E068BF
:1026B00001283DD13068216920F0F80040EAC100CE
:1026C00030602078000737D4207840074CD4A569C3
:1026D00055B3B06800F00C00082840F0BB80012D15
:1026E00026D07068E16900F480028A4220D1216A14
:1026F00000F03F028A421BD147F6C071626A014076
:10270000B1EB821F14D1A16A4FF6FF73C90399433D
:1027100000F44032A1F580318A4209D1E16A00F02B
:102720007060B0EB016F03D1002002B0BDE8F08112
:10273000012002B0BDE8F0816069002840F200008D
:10274000C4F2472076D00121C0F8801EFEF776FF44
:10275000054600BF706F8007B6D4FEF76FFF401BC1
:102760000228F7D9DDE000BF306C10F080580AD1A4
:1027700000200190306C40F080503064306C00F0EC
:1027800080500190019847F20007C4F200073868B2
:10279000C00541D4386840F480703860FEF74EFFC1
:1027A000054600BF3868C00536D4FEF747FF401B1A
:1027B0000228F7D9B5E000BFB06800F00C00082887
:1027C00003D1706840023FF558AF6068B0F5803FB4
:1027D00007D0B0F5A02F40F08D80306840F4802005
:1027E0003060306840F4803030608DE0E068002870
:1027F00052D00020C4F2472001210160FEF71EFFE5
:10280000054600BF306880073FF554AFFEF716FF5E
:10281000401B0228F6D984E0A068012805D00528CD
:102820004ED1306F40F004003067306F40F001004F
:1028300030674FE00021C0F8801EFEF7FFFE05461E
:10284000706F80077FF540AFFEF7F8FE401B02284F
:10285000F6D966E00027C4F2472700203866FEF765
:10286000EDFE022D05460BD1306880015ED5FEF7E6
:10287000E5FE401B02284FF00300F5D955E700BFE5
:10288000306880017FF550AFFEF7D8FE401B02286C
:102890004FF00300F4D948E70020C4F2472000219C
:1028A0000160FEF7CBFE0546306880077FF509AF73
:1028B000FEF7C4FE401B02284FF00300F4D934E7B2
:1028C000316F002821F001013167316F21F00401DF
:1028D00031674DD0FEF7B2FE054641F2883700BFA2
:1028E000306F800756D4FEF7A9FE401BB842F7D9D7
:1028F00017E000BF3168002821F480313160316871
:1029000021F4802131604FD0FEF798FE054600BFCC
:10291000306880033FF5B7AEFEF790FE401B642899
:10292000F6D9032002B0BDE8F08100BF04F11C0518
:102930002FCD084340EA8210D9034FF6FF7291432E
:10294000A1F5803140EA05600843706001203866D7
:10295000FEF774FE044600BF306880013FF5E4AE28
:10296000FEF76CFE001B02284FF00300F4D9DCE6F2
:10297000FEF764FE054641F2883700BF306F8007DE
:1029800008D5FEF75BFE401BB8424FF00300F5D9B7
:10299000CBE600BFB8F1000F7FF499AE306C20F0A9
:1029A0008050306493E600BFFEF748FE054600BF46
:1029B000306880037FF567AEFEF740FE401B642859
:1029C0004FF00300F4D9B0E6411E0020B0EB116FC8
:1029D0001CBF012070474EF21002CEF2000251607F
:1029E0004EF62351CEF20001F0230B7007219060C8
:1029F000116070477047000070470000002804BF56
:102A00000120704710B5044690F8410028B9002015
:102A100084F84000204600F021F8242084F841008A
:102A20002068C16821F40051C160204600F07CFD9F
:102A30002068016921F490410161416921F02A0176
:102A40004161C16841F40051C160002020216064EF
:102A500084F8411084F84210606310BD70B586B0F0
:102A60000446016844F20040C4F20000814201D0F3
:102A700006B070BD002643F630010196C4F2020193
:102A80000A6900F5DE3042F400320A610A6902F494
:102A900000320192019A01960A6842F001020A602E
:102AA000096801F00101019101990C2101910221B4
:102AB000CDE90216032104910721059101A9FEF732
:102AC000E3FC40F2085546F28800C2F20005C4F269
:102AD00002004FF000614FF4806285E84300284611
:102AE000C5E90362C5E90566C5E907666E62FEF7DA
:102AF000A7FB002818BFFDF793FEE563AC6306B0A3
:102B000070BD000070B582B0044690F842002028E5
:102B10000AD113460A4600294FF0010018BF002BC6
:102B200006D102B070BD00BF022002B070BD00BF70
:102B3000002622202663A262A385666484F84200F0
:102B40002168E06B43F2B13C43F2115E43F235255C
:102B5000C0F6000CC0F6000EC0F600050431C0E956
:102B60000FCEC0E91356FEF71DFC019620680168E0
:102B70000191406801900198206928B3206850E8CD
:102B8000030F216840F4807041E80302E2B120683D
:102B900050E8030F216840F4807041E803029AB1C5
:102BA000206850E8030F216840F4807041E8030278
:102BB00052B1206850E8030F216840F4807041E86A
:102BC0000302002ADAD100BF206850E8050F21680F
:102BD00040F0010041E80502E2B1206850E8050F2D
:102BE000216840F0010041E805029AB1206850E8F0
:102BF000050F216840F0010041E8050252B120684C
:102C000050E8050F216840F0010041E80502002A64
:102C1000DAD100BF206850E8050F216840F040007D
:102C200041E80502DAB1206850E8050F216840F05C
:102C3000400041E8050292B1206850E8050F216884
:102C400040F0400041E805024AB1206850E8050F15
:102C5000216840F0400041E80502002ADAD1002056
:102C600002B070BD006844F20041C4F20001884225
:102C700018BF704740F69010C2F20000012104F026
:102C800007BA0000704700002DE9F041044690F8B3
:102C9000410020281CBF0220BDE8F0810D4600291C
:102CA0004FF0010000F0AA801646002A08BFBDE8D8
:102CB000F081002060642120984684F84100FEF7EE
:102CC000BDFCA684E684A1680646B1F5805F02D10A
:102CD0002069002862D02F460025E08C002861D0B2
:102CE00018F1010018D0B8F1000F37D1216808E0C1
:102CF00017F8010B4860E08C0138E084E08C002874
:102D000051D00868000673D5002FF1D135F8020BB9
:102D100000276FF35F20EDE7216802E008680006F6
:102D200009D40868000606D4086800065CBF086875
:102D30005FEA0060F2D51FB117F8010B05E000BF94
:102D400035F8020B00276FF35F204860E08C0138F4
:102D5000E084E08C0028E4D125E000BF216800BFBA
:102D60000868000608D4FEF769FC801B404541D87E
:102D70002168C868F4E700BF17B117F8010B04E039
:102D800035F8020B00276FF35F204860E08C0138B4
:102D9000E084E08C0028E3D105E000BF0027E08C50
:102DA00000289DD12168086840061FD4B8F1000FA3
:102DB0001ED018F101000FD10868400616D408682B
:102DC000400613D40868400610D4086840064FF047
:102DD0000000F1D50FE000BFFEF730FC801B40453E
:102DE00008D82068C16800684006F5D5002002E0D8
:102DF000FEF724FC0320202184F84110BDE8F08177
:102E0000FEE7000080B540F2E04046F20041C2F229
:102E10000000C4F200010322002380E80E0000F14C
:102E20000C014FF4202C4FF4801E81E80850836180
:102E30008383FDF7A1FF002808BF80BDBDE8804067
:102E4000FDF7EEBC80B582B00020019043F6300063
:102E5000C4F202000168002241F400110160006820
:102E6000002100F40010019001981020FFF7A8FA4B
:102E7000102002B0BDE88040FFF78EBA024600285D
:102E800040F60000C4F202004FF0010118BF012219
:102E9000FEF7CEBB2DE9F04F87B0002543F630009A
:102EA00006950195C4F20200016840F6000941F060
:102EB000100101600168C4F2020901F010010191E2
:102EC00001990195016809F5006741F0040101606D
:102ED0000168002201F00401019101990195016846
:102EE0004FF0080A41F080010160016801F08001A3
:102EF000019101990195016841F0010101600168AA
:102F000001F00101019101990195016841F002016F
:102F10000160016801F002010191019901950168C8
:102F200041F0080101600068082100F008000190EC
:102F3000019838460097FEF77BFB484601210122A5
:102F40000124FEF775FB484610210022FEF770FBB6
:102F500009F5806840464FF210210022FEF768FB19
:102F600002AE38463146CDE902A4CDE90455FEF75C
:102F70008BFA1120CDE90204484631460124CDE9FF
:102F80000455FEF781FACDF808A04FF0020B4FF080
:102F9000050A48463146CDE903B50595CDF818A098
:102FA000FEF772FA02944FF49010A9F50064CDE98F
:102FB000030520463146FEF767FA1020CDE9020BE3
:102FC0000620069020463146CDE90455FEF75CFA0E
:102FD000E020CDE9020B20463146CDE90455CDF87D
:102FE00018A0FEF751FA0420A9F58064CDE9020586
:102FF000204631460495FEF747FA4FF48060CDE94C
:10300000020B20463146CDE90455CDF818A0FEF755
:103010003BFA4FF210200290012740463146CDE99D
:1030200003750595FEF730FA4FF4006002904FF4F7
:103030000410CDE90307404631464FF0010AFEF780
:1030400023FA4FF4A450CDE9020B0620069048461F
:103050003146CDE90455FEF717FA2020CDE90205E7
:10306000404631460495FEF70FFA4FF41070029077
:103070001220CDE9030A042006902046314605952A
:10308000FEF702FA4FF49010CDE90305009831469F
:10309000CDF808B0FEF7F8F9282000210022FFF74C
:1030A0008FF92820FFF778F907B0BDE8F08F00000E
:1030B00080B540F6481044F20041C2F20000C4F26C
:1030C000000144F2402200234FF00C0CC0F20F022A
:1030D00080E80E00C0E90333C0E905C3C361FFF710
:1030E0008DFC002808BF80BDBDE88040FDF798BB7F
:1030F00080B540F2081044F6FD21C2F20000C0F68F
:103100000001012201F0E8F8002818BFFDF788FB54
:1031100040F2081040F20801C2F20000C2F20001C1
:1031200001F0A0FC002818BFFDF77AFB40F2081060
:10313000C2F2000001F0D8FC002808BF80BDBDE845
:103140008040FDF76DBB000040F20810C2F20000A5
:1031500001F026BAFEE70000FEE7000040F26850EA
:10316000C2F20000FEF746BB704700007047000047
:10317000FFF7A6B8B0B592B0002443F64000CDE901
:103180000A44CDE908440594CDE90344CDE901445E
:103190000094C4F202000168022541F080510160F0
:1031A000006800F080500090009847F20000009402
:1031B000C4F20000016841F480410160006800F43D
:1031C000804000900098012006904FF480300790D6
:1031D0004FF480000D9008200E904FF4A870CDE9B8
:1031E0000F050720119006A80C95FFF733FA18B1C8
:1031F00072B600BFFEE700BF0F20CDE901054FF416
:10320000A05004904FF48050059001A8052103942C
:10321000FFF712F910B172B6FEE700BF12B0B0BDF1
:103220004EF68850CEF20000016841F47001016052
:1032300070470000806B01684A6990F84130212B8B
:103240002DD112F080022AD00021C184016851E8FA
:10325000031F026821F0C00142E80313DBB10168DB
:1032600051E8031F026821F0C00142E8031393B143
:10327000016851E8031F026821F0C00142E803130E
:103280004BB1016851E8031F026821F0C00142E818
:103290000313002BDAD1202180F84110016849691D
:1032A00090F84220222A40F07D8011F0400179D030
:1032B0000021C185016851E8031F026821F4907163
:1032C00042E80313BBB3016851E8031F026821F40D
:1032D000907142E8031373B3016851E8031F026859
:1032E00021F4907142E803132BB3016851E8031FE6
:1032F000026821F4907142E80313002BDAD11AE03E
:10330000016851E8051F026821F0010142E8051338
:10331000DBB1016851E8051F026821F0010142E8B4
:10332000051393B1016851E8051F026821F00101FE
:1033300042E805134BB1016851E8051F026821F00E
:10334000010142E80513002BDAD1016B012924D1D8
:10335000016851E8031F026821F0100142E80313DD
:10336000DBB1016851E8031F026821F0100142E857
:10337000031393B1016851E8031F026821F01001A3
:1033800042E803134BB1016851E8031F026821F0C2
:10339000100142E80313002BDAD1202180F84210FB
:1033A00000210163416C41F010014164FFF724BB2F
:1033B0000168806B0968C90500F19F800021C18503
:1033C000016851E8031F026821F4807142E8031389
:1033D000E3B1016851E8031F026821F4807142E8FB
:1033E00003139BB1016851E8031F026821F4807147
:1033F00042E8031353B1016851E8031F026821F446
:10340000807142E80313002BDAD100BF016851E854
:10341000051F026821F0010142E80513BBB30168F2
:1034200051E8051F026821F0010142E8051373B35A
:10343000016851E8051F026821F0010142E8051307
:103440002BB3016851E8051F026821F0010142E831
:103450000513002BDAD11AE0016851E8051F026854
:1034600021F0400142E80513DBB1016851E8051F76
:10347000026821F0400142E8051393B1016851E868
:10348000051F026821F0400142E805134BB10168B5
:1034900051E8051F026821F0400142E80513002BA6
:1034A000DAD1202180F84210016B012925D100BF1B
:1034B000016851E8031F026821F0100142E803137C
:1034C000DBB1016851E8031F026821F0100142E8F6
:1034D000031393B1016851E8031F026821F0100142
:1034E00042E803134BB1016851E8031F026821F061
:1034F000100142E80313002BDAD100214163016B74
:10350000012918BFFFF7AEBB818DFFF773BA00002A
:10351000806B01214163016B012918BFFFF7B2BB2A
:10352000818D4908FFF766BA10B504460068D4E9F2
:1035300002C22369016921F44051114301616269AA
:1035400043EA0C01E3691143C268194349F20C6371
:103550009A431143C1604169A26921F4407141F26B
:103560000043114340F48062C4F201039A42416176
:1035700002D1FFF725F801E0FFF70EF8E169636873
:103580001922B1F5004FA0FB020123D15A00DB0F35
:10359000FCF7A9FE48F21F51C5F2EB11A0FB012375
:1035A0005A094FF69C73C0F6FF7303F1805302FB78
:1035B0000300322303EBC000A0FB01014FF4F870BD
:1035C00000EA111000EB0210C1F342110844216817
:1035D000886010BD9A009B0FFCF785FE48F21F51D2
:1035E000C5F2EB11A0FB01235A094FF69C73C0F6FC
:1035F000FF7302FB0300322303EB0010A0FB010169
:10360000F02000EA511000EB0210C1F3431108440E
:103610002168886010BD000090F88523120601D44F
:1036200000225AE090F88923120601D4012254E0C6
:1036300090F88D23120601D402224EE090F89123D7
:10364000120601D4032248E090F89523120601D413
:10365000042242E090F89923120601D405223CE0AE
:1036600090F89D23120601D4062236E090F8A1239B
:10367000120601D4072230E090F8A523120601D4E7
:1036800008222AE090F8A923120601D4092224E096
:1036900090F8AD23120601D40A221EE090F8B1235F
:1036A000120601D40B2218E090F8B523120601D4BB
:1036B0000C2212E090F8B923120601D40D220CE07E
:1036C00090F8BD23120601D40E2206E090F8C12323
:1036D000120644BFFF2070470F2201F5004100EBA6
:1036E0008200C0F8841310467047000080B584B093
:1036F000944601224FF0000ECDE900211946012227
:103700000223CDF80CE0CDF808C000F01FFF002028
:1037100004B080BD10B584B09E4690F81D33944629
:10372000069A0024002B18BF22460123CDE9003160
:103730000392714600220223CDF808C000F006FF74
:10374000002004B010BD0000B0B50446D0F87C03E2
:103750000722C06900F1400142F2A110208200203E
:10376000C4F812000720E082204600F0F5F9054673
:1037700010B12846B0BD00BFD4F8D42320460221A2
:1037800090472846B0BD0000B0B50446D0F87C0391
:10379000C569297841B1204600F0B6F9297820465C
:1037A00000F08EFB00202870297B41B1204600F0FC
:1037B000ABF9297B204600F083FB00202873697B4E
:1037C00041B1204600F0A0F9697B204600F078FB6B
:1037D00000206873D4F87C03C06928B1FCF75CFD55
:1037E000D4F87C030021C1610020B0BD2DE9F04177
:1037F00084B00221022201230446022600F0D6FAF8
:10380000012806D807462046394601F039F928B183
:103810000226304604B0BDE8F08100BF01205021EF
:10382000FCF726FD0546D4F87C03C5617DB31A205C
:1038300017FB004191F94E03B0F1FF3F02DD00207C
:1038400005E000BF01F55371898868706981C1B2D4
:103850002046FFF7E1FE014694F81D036A7894F8CC
:103860001C336F890326CDE9000620462970029794
:1038700000F088FE29782046002200F033FE204622
:103880000A210022002300F091FA012804D902261F
:10389000304604B0BDE8F0811A2110FB014292F9D4
:1038A0004E1302F55372B1F1FF3F9288C7BFA9735F
:1038B0002A83E9736A831A2110FB014191F95603A7
:1038C00001F55671B0F1FF3F04DD0988A873298323
:1038D00004E000BF0988E873A87B6983C1B2204671
:1038E000FFF79AFEE97B68732046FFF795FE697B38
:1038F000AA7B94F81C3394F81D732E8B28734FF019
:1039000002082046CDE90078029600F03BFE94F8CC
:103910001D03297BEA7B94F81C336F8BCDE90008EB
:103920002046029700F02EFE697B002620460022EA
:1039300085F84C6000F0D6FD297B2046002200F07F
:10394000D1FD304604B0BDE8F081000070470000B2
:1039500070B582B00446D0F87C03C66996F84C0076
:1039600004286CD8DFE800F004081C4C620000BF9B
:10397000002002B070BD00BF42F22100B16C208275
:103980000020C4F812000720E0822046072200F041
:10399000E3F8012853D0002854D1022053E000BF9F
:1039A00042F2A1102082002006F14005C4F8120066
:1039B0000720E08220462946072200F0CDF80128A2
:1039C0003DD000283ED1002086F84C00B06C96F81F
:1039D00044100279914232D196F846108279914290
:1039E0002DD196F845104279914228D12968006876
:1039F000814224D12046FFF7A9FF012002B070BD0B
:103A000096F84D00022823D0012835D1706A328BF8
:103A1000F1699042737B88BF1046012582B220462F
:103A20000095FFF777FE022024E000BF204600212A
:103A3000002400F06FF8002808BF86F84C400120F1
:103A400002B070BD042086F84C00012002B070BDA9
:103A5000717B204600F0CEFC02280AD001280BD151
:103A6000716A308B814241D9F269091A104471623E
:103A7000F061012086F84D00D4F87C03C56995F803
:103A80004E0004280ED00328D9D1296A6A8B2B7BDB
:103A90002046FFF72BFE042085F84E00012002B0DF
:103AA00070BD00BF297B204600F0A4FC0128C6D1D0
:103AB000297B204600F090FCA96A091A0CD06A8B79
:103AC000904209D92A6AA96210442862032085F825
:103AD0004E00012002B070BD002085F84E00204647
:103AE00000F00CF8012002B070BD00BF0020706231
:103AF00086F84D00204600F005F8BDE7704700004D
:103B0000002070477047000080B500F021FC0020C5
:103B100080BD00008278012A05D14FF48172818234
:103B200000210261C1820021002200F015B80000CE
:103B300080B584B0944601224FF0000ECDE90021FB
:103B4000194601220023CDF80CE0CDF808C000F0A2
:103B5000FDFC002004B080BDB0B582B00446807882
:103B600002280BD0012840F0D38001250220A1605B
:103B7000A2812576A070284602B0B0BD207E013813
:103B80000A2800F2C5800FF20601DFE800F00735D1
:103B90000F451B576B7B872B970000BF627904F1A1
:103BA0001001204600F0EEF802202FE0D4F8C40304
:103BB000A168A2892379E0812046FFF7B9FF04209C
:103BC00024E000BFA168A289637901252046009501
:103BD00000F0BEF8D4F8C403E08106202076284621
:103BE00002B0B0BD6179204600F004FC012853D03A
:103BF00004280AD0022819E06179204600F0FAFB77
:103C0000042818BF022840F077800B202076012579
:103C1000284602B0B0BD00BF2179204600F0EAFB83
:103C2000052800F079800428EFD0012804BF09207E
:103C300020760125284602B0B0BD00BF617920463C
:103C400000F0D8FB411E04294FF001053FF693AF69
:103C50000320DFE801F0056D036F64008BE700BF10
:103C60000720D3E72379204600210022FFF760FFD9
:103C7000D4F8C4030125E08108202076284602B04C
:103C8000B0BD00BF2179204600F0B4FB052845D027
:103C90000428BAD001283BD1002040E063790125F7
:103CA000204600210022009500F052F8D4F8C40309
:103CB000E0810A202076284602B0B0BD607E013047
:103CC000C1B20229607605D801252576A57028465F
:103CD00002B0B0BDD4F8D4232046062190476179C4
:103CE00000252046657600F0EBF82179204600F0AB
:103CF000E7F8257020E000BF012809D1E18A94F996
:103D00001000F9B1B0F1FF3FCCBF052003207DE7E3
:103D10000125284602B0B0BD032000E003200121A8
:103D2000A170002121760546284602B0B0BD00BF33
:103D300005206BE70B20207601200225A070284685
:103D400002B0B0BDB0F1FF3FCCBF072009205DE756
:103D500010B584B09E4690F81D339446069A002410
:103D6000002B18BF22460123CDE900310392714692
:103D700000220023CDF808C000F0E8FB002004B0CA
:103D800010BD000080B584B08C460021082300914E
:103D9000CDE90231114600220023CDF804C000F025
:103DA000D5FB002004B080BDFDF74CBBFF2911D12D
:103DB000FF2A21D1FF2B6BD090F84913994267D08D
:103DC00090F863134FF0FF30994208BF0120C0B252
:103DD000704700BF90F847C3FF2A1DD1FF2B2DD19C
:103DE0008C4555D090F861234FF0FF308A4208BFD0
:103DF0000120C0B2704700BF90F84813FF2B2DD1AF
:103E0000914245D090F862134FF0FF30914208BFC5
:103E10000120C0B2704700BFFF2B2FD18C4503D1CA
:103E200090F84833934233D090F861338B4243D1BA
:103E300090F8620390423BD03EE000BF8C4503D136
:103E400090F849239A4223D090F861238A4233D1D3
:103E500090F8630398422FD12AE000BF914203D12A
:103E600090F84913994213D090F86213914223D1EC
:103E700090F8630398421FD11AE000BF8C450BD124
:103E800090F848C3944507D190F849C39C4503D1A5
:103E90000020C0B2704700BF90F861C38C450BD1C1
:103EA00090F86213914207D190F86303984203D1CE
:103EB0000120C0B2704700BFFF20C0B270470000B1
:103EC0000F2907D800EB8100D0F884136FF3DF319E
:103ED000C0F88413002070472DE9F04F85B0B1F58C
:103EE000807F01D9032016E0824680780E460128A3
:103EF0000AF11C0509D14FF4D060AAF810004FF464
:103F00000070CAF81200AAF81660504629463246D8
:103F1000FFF722FE20B1C0B205B0BDE8F08F00BFB0
:103F20009AF81C009AF81D10BAF81E409AF8202042
:103F30008AF839138AF83803B4F5807F28BF4FF424
:103F40008074DAF821100928AAF83A438AF83C2349
:103F5000CAF83D131CBF09208AF838030A2EC0F0A6
:103F6000F5800A2C4FF000004FF000060092C0F0E0
:103F7000E0804FF0090C002100260020092703945F
:103F80002A7815446B781744042B40F0CB802A78AC
:103F9000092A4FF01A0201FB02AB18BF85F800C0D6
:103FA0008BF842C3697801968BF84313A9788BF894
:103FB0004413E9788BF8451395F80490B9F1020F92
:103FC00028BF4FF002098BF846936979B9F1000FC9
:103FD0008BF84713AA798BF84823EB798BF8493390
:103FE00002932B7A8BF84A3300F0988002F0FE029D
:103FF00081F0010182F0020211434FF000084FF0FE
:10400000000C18BF0121049108E000BF0CF1010C65
:104010005FFA8CF8C845774480F08080B9B2A1423D
:1040200080F09A8095F800E0754469780529EFD111
:10403000049818B107210846297007E002992878EA
:1040400021B9092109284FF00900F4D10BEBC8046C
:1040500084F84C0368789AF81D1384F84D03A87807
:1040600084F84E03EB7884F84F33AE88A4F850639D
:10407000A6F20120AA7910F5007F4FF0000038BFAA
:104080000320022984F8522312D001291AD00029D2
:104090002CD103F00301039CDFE801F00206300697
:1040A000402E88BF0320B1E7A2F1110119E000BF43
:1040B00003F00301039C03291CD0C1B9082E18BFCB
:1040C0000320A3E703F00301039CDFE801F00305ED
:1040D000031D00BFE4E700BFA2F11101402E88BF1D
:1040E000032011F1100F38BF03208FE7039C03203A
:1040F0008CE700BF082E88BF03200AE0B6F5007FDA
:1041000088BF032082E700BF0021B1EB962F18BFC4
:104110000320002A08BF032078E700BF019E4FF06C
:10412000090C0136F1B2012903D8BAB2A242FFF458
:1041300027AF009AF1B2022A28BF02228A4288BF22
:104140000320C0B205B0BDE8F08F00BF0020C0B2B0
:1041500005B0BDE8F08F00BF0320C0B205B0BDE8D8
:10416000F08F0000B0B5B1F5007F84BF0320B0BD73
:10417000044680780D46012804F58E7107D14FF46E
:10418000D06020824FF48070C4F81200E58220468F
:104190002A46FFF7E1FC08B1B0BD00BFD4F81C010E
:1041A000B4F82111C4F8260394F82001A4F82B13C5
:1041B00094F81D1384F82A0394F82301022984F843
:1041C0002D030BD208384FEAF000082809D2C0B2FC
:1041D0008B2121FA00F0C00703D005E006D10828A2
:1041E00002D0082084F82D03002000E00320092DD0
:1041F00038BFB0BDB4F8241194F82A21A4F82E13C6
:10420000D4F8261184F83423C4F83013B4F82B11F1
:1042100094F82D21A4F8351384F83723B0BD00009D
:1042200070B506464FF00300D2B11D46B3F5007FCE
:1042300088BF70BDB0781446012806F58E7209D18A
:1042400001F540704FF4D061708240F20940318234
:10425000B082F582304611462A46FFF77DFC08B150
:1042600070BD00BF96F81D0103281CBF002070BD63
:1042700096F81C010238A84238BF0546E5B106F59C
:104280008F7000218A1C435C92B2AA42237017D21D
:10429000835C0A1D92B2AA42637015D2835C8A1DA8
:1042A00092B2AA42A37013D2825C083189B2E27042
:1042B000A94204F10404E5D30020207070BD00BFC2
:1042C00001340020207070BD02340020207070BDC9
:1042D00003340020207070BD002804BF0220704706
:1042E000F0B581B004460D4680F8CC2300F55F7030
:1042F0004821FCF7D7F800274FF480710120277080
:10430000A4F80110C4F8C47320834020A07104F104
:104310001C00C4F81C134FF4407104F22636FCF75D
:10432000C1F830465021FCF79BF8204684F82373EF
:1043300084F8207384F82173002D84F8227318BF49
:10434000C4F8D45300F06AF8002001B0F0BD0000BA
:1043500080B5D0F8D003FDF795F940F20022022392
:10436000C100C0F20122042838BF22FA01F3D8B2FA
:1043700080BD00000146012081F8200300220020BA
:1043800081F8212381F822237047000010B50446EC
:10439000012084F82103002084F8200384F82303FB
:1043A000204600F0C1F821792046FFF789FD6179A8
:1043B0002046FFF785FD002010BD000080B590F875
:1043C000CC03012802D10846FEF758FDC820FDF7AE
:1043D00039F8002080BD0000D0F8D003FDF74CB9BB
:1043E00080B5D0F8D003FDF73BF9032828BF0120A2
:1043F000C0B280BDD0F8D003FDF736B9D0F8C413F1
:104400000131C0F8C41301780B2918BF7047D0F8E8
:104410007C1309B1896908477047000010B504464C
:1044200090F8CC03012822D140F26850C2F200007B
:104430004FF0A04101600821A0F805100121C171D1
:104440000221C0F8DC43C4F8D003A0F80910FDF73E
:1044500069FE002818BFFCF7E3F940F26850C2F289
:104460000000FDF7F9F80146204600F037F800207B
:1044700010BD000010B584B0DDE906CE089CD0F870
:10448000D003CDE900CE0294FDF70EF940F20022F0
:104490000223C100C0F20122042838BF22FA01F32E
:1044A000D8B204B010BD0000002180F8231370477B
:1044B000012180F82313704780B5D0F8D003FDF7B1
:1044C000CFFE40F200220223C100C0F201220428E4
:1044D00038BF22FA01F3D8B280BD0000C0F8C4137F
:1044E00070470000D0F8D003C1EB011100EB810050
:1044F000C17D00290CBF80F83D2080F83C200020C1
:104500007047000080B5D0F8D003FDF7B1FE40F24F
:1045100000220223C100C0F20122042838BF22FA7F
:1045200001F3D8B280BD000080B5D0F8D003FDF70C
:10453000B5FE40F200220223C100C0F2012204288D
:1045400038BF22FA01F3D8B280BD0000B0B584B004
:10455000DDE908CEDDE90A45D0F8D003CDE900CE8B
:10456000CDE90245FDF7F2F840F200220223C10036
:10457000C0F20122042838BF22FA01F3D8B204B0F5
:10458000B0BD000010B584B0DDE906CE089CCDE9D1
:1045900000CE0294FFF76EFF002004B010BD0000B3
:1045A000F0B585B0044602208DF8130094F821037D
:1045B000012804BF0320207020780B2800F23682E7
:1045C000DFE810F00C002C003A0072003402B40056
:1045D000EC000401120120013601200094F82003B0
:1045E000002800F0238201202070C820FFF7DCFBA8
:1045F0002046FFF761FF002084F81C03C4F8C803BD
:1046000014E200BFD4F87C03002800F00F82416957
:1046100020468847002005B0F0BD00BF94F8230372
:10462000012840F02581002084F81F03022020701B
:10463000002005B0F0BD00BFD4F8D42312B120464D
:10464000042190476420FFF7AFFB2046FFF7C8FE28
:1046500084F81D0305202070204600210025FEF768
:10466000DBFF607120468021FEF7D6FF014694F8FB
:104670001D0394F81C33A6792171CDE9000520466D
:1046800080220296FFF77EFF94F81D0394F81C33F6
:104690006179A679CDE90005204600220296FFF750
:1046A00071FF002005B0F0BD002604F561704021C7
:1046B00084F821634025FBF7F5FE4FF4807101205B
:1046C0002670A4F80110C4F8C463208304F11C0010
:1046D000C4F81C134FF44071A57104F22635FBF7A2
:1046E000E1FE28465021FBF7BBFED4F87C0320B145
:1046F000C16820468847C4F87C63D4F8D42312B13B
:1047000020460521904794F82203012840F0C480F8
:10471000002084F822032046FFF7F4FE2046012102
:10472000FFF74CFE002005B0F0BD00BF6078072801
:1047300000F27681DFE810F008000A01D0001401D1
:10474000FE00320140014E0120460821FFF70AFD1C
:10475000032800F05B81002840F0628194F82D036B
:1047600094F81D230125217994F81C33A0716570FC
:10477000002700920290204680220197FFF702FF57
:1047800094F81D0394F81C336179A679CDE90007EC
:10479000204600220296FFF7F5FE42E1D4F87C03A2
:1047A00000285AD00169204688478DF813009DF8EB
:1047B0001300002800F080809DF81300022804BF39
:1047C0000D202070002005B0F0BD00BFD4F8D42328
:1047D000002A00F02B8120460121904708202070FC
:1047E000002005B0F0BD00BF94F83D13204600F056
:1047F0005FF9002840F01A8109202070002005B0E0
:10480000F0BD00BF94F83F0380062BD52046012160
:1048100000F05CF98DF813009DF8130010B39DF8BB
:104820001300032804BF0A202070002005B0F0BD4B
:10483000D4F88003002800F0F980D4F8780394F8C5
:104840004723017900239142C4F87C3305D1816864
:10485000C4F87C0320468847A0B30D2020700020B8
:1048600005B0F0BD0A202070002005B0F0BD00BFEB
:10487000D4F8C803B0F57A7F14D994F81F03013037
:10488000C1B2042984F81F0334BF00200D2020701A
:10489000002005B0F0BD00BF2046FFF733FE00202A
:1048A00005B0F0BD0A30C4F8C8030A20FFF77CFA4F
:1048B000002005B0F0BD00BF0B202070002005B027
:1048C000F0BD00BF06202070D4F8D4232046032179
:1048D0009047002005B0F0BD20460121012500F0E1
:1048E000D9F8032800F08C80002840F09A8002203C
:1048F000FFF75AFA94F81D23A379012503202179A3
:1049000084F81C5360700026009202932046802297
:1049100001230196FFF736FE94F81D0394F81C332B
:104920006179A779CDE90006204600220297FFF7BA
:1049300029FE76E0B4F83A132046FFF7CDFA0328B3
:1049400018D000286CD105205DE000BF2046122160
:10495000FFF708FC03280DD0002861D1022052E0A7
:1049600020460921FFF7B8FA032803D0002857D1C1
:10497000042048E094F81E030130C1B2042984F8F1
:104980001E034BD261792046FFF79AFA217920461F
:10499000FFF796FA0020607041E000BF94F83413EE
:1049A00041B104F58E722046FF23FFF739FC03283E
:1049B00000D0A8BB062026E094F8351341B104F5D9
:1049C0008E722046FF23FFF72BFC032800D038BB54
:1049D000072018E094F8361381B104F58E72204652
:1049E000FF23FFF71DFC0028014618BF01210338F3
:1049F00018BF012001EA000513E000BF002510E008
:104A00000D202070002060700AE000BF94F81E03A3
:104A10000130C1B2042984F81E0319D30D2020707F
:104A200001258DF813509DF8130018B1002005B032
:104A3000F0BD00BF94F837030021012884F8241347
:104A400014BF072008202070002005B0F0BD00BF73
:104A500061792046FFF734FA21792046FFF730FAD2
:104A60000020DCE711B1D0F880230AB102207047A2
:104A70000122C0F88023C0F878130020704700009E
:104A800090F83C238A4292BF022080F82413002031
:104A9000704700008278012A05D14FF4A06241825C
:104AA00000210282416100210022FFF755B8000079
:104AB0008278012A05D14FF41062418200210282DE
:104AC000416100210022FFF747B800008278012AE7
:104AD00005D14FF4407241820021028241610021E0
:104AE0000022FFF739B8000010B50446FFF70AFDB1
:104AF00020460121FFF762FC002010BD05290BD0E4
:104B0000042911D0022918BF7047022040F2041175
:104B1000C2F2000108707047032040F20411C2F293
:104B200000010870704700BF012040F20411C2F27A
:104B3000000108707047000082B002F47F42B2F5B5
:104B4000807F40F07F80826B4FF6BF7322F480320B
:104B50008263C268CFF6BD731A40C260029BC2680E
:104B6000DBB222F44012012BC26003D1C26842F4CE
:104B70008012C26000220092009A01320092009AD4
:104B8000B2F1706F00F2BE800269002A21D4009A4F
:104B900001320092009AB2F1706F00F2B3800269A4
:104BA000002A16D4009A01320092009AB2F1706F76
:104BB00000F2A8800269002A0BD4009A0132009208
:104BC000009AB2F1706F00F29D800269B2F1FF3F6E
:104BD000D2DC00220092026942F001020261009AD6
:104BE00001320092009AB2F1706F00F28B8002697C
:104BF000D2071ED0009A01320092009AB2F1706F73
:104C000000F280800269D20713D0009A013200922C
:104C1000009AB2F1706F75D80269D20709D0009A74
:104C200001320092009AB2F1706F6BD80269D2071C
:104C3000D5D14FF0000C01F47F01B1F5803F40F079
:104C4000818077E0C26842F04002C2600022019297
:104C5000019A01320192019AB2F1706F5AD8026939
:104C6000002A1ED4019A01320192019AB2F1706FAA
:104C700050D80269002A14D4019A01320192019A93
:104C8000B2F1706F46D80269002A0AD4019A013243
:104C90000192019AB2F1706F3CD80269B2F1FF3F04
:104CA000D6DC00220192026942F001020261019AFF
:104CB00001320192019AB2F1706F2BD80269D207CA
:104CC0001DD0019A01320192019AB2F1706F21D880
:104CD0000269D20713D0019A01320192019AB2F10E
:104CE000706F17D80269D20709D0019A0132019278
:104CF000019AB2F1706F0DD80269D207D7D14FF087
:104D0000000C09E04FF0030C01F47F01B1F5803F86
:104D100018D10FE04FF0030C826B13F47F4F14BFD8
:104D200022F4803242F48032826301F47F01B1F5D3
:104D3000803F07D1816841F006018160816841F0C0
:104D400020018160604602B0704700000146806823
:104D500020F0010200208A607047000081B000222C
:104D60000092D0F8402401290092009A22F02E02ED
:104D70000092009B009A08BF13F480530CD039B9FD
:104D800012F4805104D0009921F48051C0F84014ED
:104D9000002001B0704700BF42F48051C0F84014B9
:104DA0000098002001B070470146806840F0010281
:104DB00000208A607047000081B0002100910099B6
:104DC000013100910099B1F1706F51D8016900294A
:104DD0001ED40099013100910099B1F1706F47D84C
:104DE0000169002914D40099013100910099B1F1B1
:104DF000706F3DD8016900290AD4009901310091F2
:104E00000099B1F1706F33D80169B1F1FF3FD6DC81
:104E10000021009110210161009901310091009958
:104E2000B1F1706F24D80169C9061DD5009901310F
:104E300000910099B1F1706F1AD80169C90613D5B4
:104E40000099013100910099B1F1706F10D801699A
:104E5000C90609D50099013100910099B1F1706F2F
:104E600006D80169C906D7D4002001B0704700BF39
:104E7000032001B07047000081B000220092009A28
:104E800001320092009AB2F1706F51D80269002A83
:104E90001ED4009A01320092009AB2F1706F47D886
:104EA0000269002A14D4009A01320092009AB2F1E9
:104EB000706F3DD80269002A0AD4009A013200922C
:104EC000009AB2F1706F33D80269B2F1FF3FD6DCBD
:104ED0008901002220310092016100990131009185
:104EE0000099B1F1706F23D8016989061DD5009929
:104EF000013100910099B1F1706F19D801698906EB
:104F000013D50099013100910099B1F1706F0FD85C
:104F10000169890609D50099013100910099B1F123
:104F2000706F05D801698906D7D4002001B0704799
:104F3000032001B070470000D0F8080480B2704729
:104F400081B000210091D0F8400400900098C0F397
:104F5000414001B070470000406900F00100704717
:104F600080B581B00022009200EB4111D1F800C55C
:104F7000D1F800E5D1F8042583689B060FD5002AF7
:104F80000DD4BEF1FF3F03DD002001B080BD00BFA6
:104F9000022242EA9C4202F00302032AF4D001F505
:104FA000A0610A685FEA4C3342F080420A603BD459
:104FB0008268920676D4C26A086812F47F0F72D1B2
:104FC00020F000400860086840F000400860009849
:104FD000013000900098B0F57A7FD5D80868B0F11C
:104FE000FF3FD1DC0098013000900098B0F57A7F47
:104FF000CAD80868B0F1FF3FC6DC009801300090C5
:105000000098B0F57A7FBFD80868B0F1FF3FBBDCED
:105010000098013000900098B0F57A7FB4D8086805
:105020000028D4D4B0E700BFD0F81024086812F4E8
:105030007F0F38D120F000400860086840F0004041
:1050400008600098013000900098B0F57A7F9BD8F6
:105050000868B0F1FF3F97DC00980130009000989D
:10506000B0F57A7F3FF690AF0868B0F1FF3F3FF7A9
:105070008BAF0098013000900098B0F57A7F3FF632
:1050800083AF0868B0F1FF3F3FF77EAF0098013073
:1050900000900098B0F57A7F3FF676AF0868002858
:1050A000CFD471E7086840F000400860002001B0EC
:1050B00080BD00002DE9F04381B0DDE908840A9E3F
:1050C00000EB411707F5A06E4FF0FF35032C4FF0B2
:1050D0000109C7F8085513D8DFE804F002160222C8
:1050E00040F29D4C754657B2002F45F80CCF1FD4A7
:1050F0000027C4F20407B84220D14FF0600C19E039
:105100004FF0010C1CE000BF40F2252C754657B251
:10511000B7F1FF3F45F80CCF10DC4FF4C07C09E03D
:1051200040F29D6C754657B2002F45F80CCF05D55F
:105130004FF4807C2F6847EA0C072F604FF0000C7B
:105140000025CEF80450DEF80C7001F00F0147F096
:105150000207CEF80C70D0F8187409FA01F139433F
:10516000C0F81814816903F07F0341F00071816178
:105170000095D0F8400402F08001009000980902E8
:1051800000F4C02062F3CE2104F0030541EA83510C
:10519000B0F5802F4FF480106FF3DF2641EA854190
:1051A00018BF4FF4901031444FF48012B8F1020F41
:1051B00018BF1046084404F0FD010129CEF8000094
:1051C00005D1DEF8000040F00050CEF80000604647
:1051D00001B0BDE8F0830000D0F8140480B270473D
:1051E000F0B581B00023C4F2040391F801C09842E5
:1051F00022D091F806E0BEF1010F07D1CE78002E43
:1052000046D08C8A0125CC6175E000BF0C6A002C69
:105210004ED08B8AE518013DB5FBF3F5ABB2B3F583
:10522000807F88BF4FF48075CE78002E44D08B8A63
:10523000ACB25C43CC615EE0012A11D18B7C43F0BF
:105240000203022BD5D18B79002BD2D100EB4C136A
:10525000D3F80C6526F07006C3F80C65C9E700BFEB
:105260000E79002EC5D14E79012EC2D1002103EB5B
:105270004C10C8F20801C0F81015D0F80015022231
:1052800062F39F71C0F80015002001B0F0BD00BFAF
:105290008B7C012B12D10C6ABD2C1FD3CB688C8A5E
:1052A000013B012BCC610C6222D802231DE000BF20
:1052B0000125CE78002EBAD1CC611BE00C6A012A00
:1052C00008D18B8A9C4205D9CB61012500261C465A
:1052D00011E000BFCC6101250CE000BFCB68CC61C0
:1052E000013B022B34BF03230423CB60012501E0E3
:1052F0000125CD6000268B7D6FF3DF4465F3DC4430
:1053000003F0030344EA437300EB4C15C5F8103572
:1053100005F5A064002A1CBF8B696361D0F80834CE
:105320002568BEF1010F25F0005525604FF00055AE
:10533000276825EA437343EA0703236016D10B7CF1
:105340004F7CCD7943EAC71303F100436360E36800
:10535000012D43F06003E36008BF002E36D08B7C44
:1053600043F00207032F3ED002E000BF002363603A
:105370002368002E0093009B23F08043009355D1B7
:10538000009B002A23F400430093009B43F000435A
:105390000093009B23607FF477AF0A6A002A3FF4F2
:1053A00073AFCB79002B7FF46FAF8B7C032B58D876
:1053B000DFE803F0024A024AC76AD31CC3F38F0333
:1053C000BFB2BB424DD9202348E000BF636843F41D
:1053D00080336360E36843F04003E3608B7C43F019
:1053E0000207032FC4D1012D08BF012E14D0012BB9
:1053F000BED1AEB9CB68013B042B05D232A757F81A
:10540000233067683B43636023680093009B23F06D
:1054100080430093B4E700BF606840F48030606070
:1054200020680090009820F080400090009840F4A0
:1054300000400090009840F00040009000982060EC
:10544000002001B0F0BD00BFD0F81074D31CC3F32E
:105450008F03BFB2BB4204D94FF0806387693B43DF
:10546000836192B2002A3FF40FAFD61C4FF0FF3396
:10547000896903EB960300F580504FEA0C32032B49
:10548000C6F381030ED3B70827F003050F68043D68
:1054900017504F6817508F681750CF6801F11001EF
:1054A0001750F3D1002B3FF4EFAE0F68012B1750CC
:1054B0003FF4EAAE4F68022B17501CBF89681150A9
:1054C000002001B0F0BD00BF008000000E00000011
:1054D0000040000000C0000070B582B08646002089
:1054E000CEF8000EDEF8380040F40010CEF8380098
:1054F000DEF8380020F40020CEF83800DEF838005E
:1055000020F48020CEF83800DEF80C00400609D4E4
:1055100001F07F42DEF80004B2F1807F04D140F058
:10552000040003E0DEF8000420F00400CEF80004DC
:105530000B0A002000900098013000900098B0F114
:10554000706F59D8DEF81000002821D4009801307F
:1055500000900098B0F1706F4ED8DEF8100000286F
:1055600016D40098013000900098B0F1706F43D8C5
:10557000DEF8100000280BD400980130009000984D
:10558000B0F1706F38D8DEF81000B0F1FF3FD2DC18
:10559000002000904FF48460CEF810000098013095
:1055A00000900098B0F1706F26D8DEF810008006E9
:1055B00020D50098013000900098B0F1706F1BD892
:1055C000DEF81000800615D5009801300090009894
:1055D000B0F1706F10D8DEF8100080060AD5009880
:1055E000013000900098B0F1706F05D8DEF810001F
:1055F0008006D3D4002000E0012000220192019A0D
:1056000001320192019AB2F1706F57D8DEF8102082
:10561000002A21D4019A01320192019AB2F1706FED
:105620004CD8DEF81020002A16D4019A01320192DB
:10563000019AB2F1706F41D8DEF81020002A0BD425
:10564000019A01320192019AB2F1706F36D8DEF8F8
:105650001020B2F1FF3FD2DC002201921022CEF8DE
:105660001020019A01320192019AB2F1706F25D88F
:10567000DEF81020D20622D5019A01320192019A59
:10568000B2F1706F1AD8DEF81020D20617D5019A41
:1056900001320192019AB2F1706F0FD8DEF810203A
:1056A000D2060CD5019A01320192019AB2F1706FC3
:1056B00004D8DEF81020D206D3D400E00120DCB2FA
:1056C000D4B3621E03F0030C0023032A4FF0000240
:1056D0001AD3A4EB0C044FF0FF3500220EEB0206A8
:1056E000043C02F18002C6F80855C6F80C35C6F82D
:1056F0002855C6F82C35C6F84855C6F84C35C6F8B6
:105700006855C6F86C35E9D1BCF1000F14D00EF520
:10571000A0631A444FF0FF340023BCF1010F9460E2
:10572000D36009D0BCF1020F9462D36204D04FF071
:10573000FF3393640023D3640022C4F204020023E5
:10574000CEF818304FF0FF339645CEF814301FD006
:105750008022CEF824208022C0F26002CEF82820D9
:10576000E022C0F24002CEF8002111F47F0F05D1F3
:10577000DEF8181041F01001CEF81810DEF81810FD
:105780000822CAF220321143CEF8181002B070BDC0
:105790004FF40073536240F20023C0F2001393628F
:1057A00040F20033C0F2E003C2F8003111F47F0F81
:1057B000E4D1DDE7D0F8002401F0030322F0030276
:1057C000C0F80024D0F80024012942EA0302C0F8FE
:1057D000002409D002291CBF0120704741F27071DA
:1057E000C0F80414002070474BF68031C0F8041450
:1057F0000020704700EB4110D0F80815D0F80C05D8
:1058000008407047416980690840704710B59308A7
:1058100002F0030E2CD05A1E032A03F0030C0FD300
:1058200023F003034FF480528458043B0C608458E7
:105830004C6084588C608458CC6001F11001F3D125
:10584000BCF1000F14D04FF4805284580B46BCF1C9
:10585000010F43F8044B05D11946BEF1000F0AD1E0
:105860001EE000BF8258BCF1020F4A601AD1083115
:10587000BEF1000F14D04FF4805280580A46BEF19A
:10588000010F02F8010B04BF104610BD020ABEF161
:10589000020F4A7004BF881C10BD000C88700331D1
:1058A000084610BD4FF4805282588A600C31BEF118
:1058B000000FE0D1F4E7000010B582B004460020EC
:1058C0000190D4F840040190019820F02E0001903E
:1058D000019840F48070C4F840046420FBF7B2FDE6
:1058E000019820F48070C4F840040A20FBF7AAFD58
:1058F000002002B010BD0000B0B50446C068002909
:1059000020F0C040E06000F09980012940F0B080B4
:10591000E0680A2540F00050E0600A20FBF792FDA5
:1059200054F8140FC00740F09C800A20FBF78AFD52
:105930002068C00740F09E800A20FBF783FD2068A6
:10594000C00740F0A5800A20FBF77CFD2068C00757
:1059500040F0AC800A20FBF775FD2068C00740F0DE
:10596000B3800A20FBF76EFD2068C00740F0BA80C4
:105970000A20FBF767FD2068C00740F0C1800A20BD
:10598000FBF760FD2068C00740F0C8800A20FBF7E5
:1059900059FD2068C00740F0CF800A20FBF752FD78
:1059A0002068C00740F0D6800A20FBF74BFD206836
:1059B000C00740F0DD800A20FBF744FD2068C007E7
:1059C00040F0E4800A20FBF73DFD2068C00740F06E
:1059D000EB800A20FBF736FD2068C00740F0F2801C
:1059E0000A20FBF72FFD2068C00740F0F9800A204D
:1059F000FBF728FD2068C00740F000810A20FBF774
:105A000021FD2068C00740F007810A20FBF71AFD3E
:105A10002068C00740F00E810A20FBF713FD2068C4
:105A2000C00740F016810A20FBF70CFD2068C8254E
:105A3000A5F1C800B0FA80F04009B0BDE0680A25C1
:105A400040F08040E0600A20FBF7FCFC54F8140FA3
:105A5000C00706D00A20FBF7F5FC2068C00711D16B
:105A60001425A5F1C800B0FA80F04009B0BD00BF10
:105A70000120B0BD1425A5F1C800B0FA80F040099E
:105A8000B0BD00BF0A20FBF7DDFC2068C00707D1CE
:105A90001E25A5F1C800B0FA80F04009B0BD00BFD6
:105AA0000A20FBF7CFFC2068C00707D12825A5F105
:105AB000C800B0FA80F04009B0BD00BF0A20FBF773
:105AC000C1FC2068C00707D13225A5F1C800B0FA93
:105AD00080F04009B0BD00BF0A20FBF7B3FC20688E
